{
  "_format": "hh-sol-artifact-1",
  "contractName": "Beam",
  "abi": [
    {
      "inputs": [
        {
          "internalType": "address",
          "name": "_fungibleModule",
          "type": "address"
        },
        {
          "internalType": "address",
          "name": "_gateway",
          "type": "address"
        }
      ],
      "stateMutability": "nonpayable",
      "type": "constructor"
    },
    {
      "inputs": [],
      "name": "InvalidSender",
      "type": "error"
    },
    {
      "inputs": [],
      "name": "InvalidToken",
      "type": "error"
    },
    {
      "inputs": [],
      "name": "InvoiceAlreadyCompleted",
      "type": "error"
    },
    {
      "inputs": [],
      "name": "InvoiceDoesNotExist",
      "type": "error"
    },
    {
      "inputs": [],
      "name": "InvoiceNotExpired",
      "type": "error"
    },
    {
      "inputs": [],
      "name": "OnlyGateway",
      "type": "error"
    },
    {
      "inputs": [],
      "name": "Unauthorized",
      "type": "error"
    },
    {
      "anonymous": false,
      "inputs": [
        {
          "indexed": true,
          "internalType": "uint256",
          "name": "id",
          "type": "uint256"
        },
        {
          "indexed": false,
          "internalType": "address",
          "name": "seller",
          "type": "address"
        },
        {
          "indexed": false,
          "internalType": "address",
          "name": "token",
          "type": "address"
        },
        {
          "indexed": false,
          "internalType": "uint256",
          "name": "amount",
          "type": "uint256"
        }
      ],
      "name": "InvoiceCreated",
      "type": "event"
    },
    {
      "anonymous": false,
      "inputs": [
        {
          "indexed": true,
          "internalType": "uint256",
          "name": "id",
          "type": "uint256"
        }
      ],
      "name": "InvoiceFinalized",
      "type": "event"
    },
    {
      "anonymous": false,
      "inputs": [
        {
          "indexed": true,
          "internalType": "uint256",
          "name": "id",
          "type": "uint256"
        },
        {
          "indexed": false,
          "internalType": "address",
          "name": "contributor",
          "type": "address"
        },
        {
          "indexed": false,
          "internalType": "uint256",
          "name": "amount",
          "type": "uint256"
        }
      ],
      "name": "PaymentAdded",
      "type": "event"
    },
    {
      "anonymous": false,
      "inputs": [
        {
          "indexed": true,
          "internalType": "uint256",
          "name": "id",
          "type": "uint256"
        },
        {
          "indexed": false,
          "internalType": "address",
          "name": "contributor",
          "type": "address"
        },
        {
          "indexed": false,
          "internalType": "uint256",
          "name": "amount",
          "type": "uint256"
        }
      ],
      "name": "RefundIssued",
      "type": "event"
    },
    {
      "stateMutability": "payable",
      "type": "fallback"
    },
    {
      "inputs": [
        {
          "internalType": "uint256",
          "name": "id",
          "type": "uint256"
        },
        {
          "internalType": "uint256",
          "name": "amount",
          "type": "uint256"
        }
      ],
      "name": "addPayment",
      "outputs": [],
      "stateMutability": "nonpayable",
      "type": "function"
    },
    {
      "inputs": [
        {
          "internalType": "uint256",
          "name": "",
          "type": "uint256"
        },
        {
          "internalType": "address",
          "name": "",
          "type": "address"
        }
      ],
      "name": "contributions",
      "outputs": [
        {
          "internalType": "uint256",
          "name": "",
          "type": "uint256"
        }
      ],
      "stateMutability": "view",
      "type": "function"
    },
    {
      "inputs": [
        {
          "internalType": "address",
          "name": "token",
          "type": "address"
        },
        {
          "internalType": "uint256",
          "name": "totalAmount",
          "type": "uint256"
        },
        {
          "internalType": "uint256",
          "name": "duration",
          "type": "uint256"
        }
      ],
      "name": "createInvoice",
      "outputs": [
        {
          "internalType": "uint256",
          "name": "",
          "type": "uint256"
        }
      ],
      "stateMutability": "nonpayable",
      "type": "function"
    },
    {
      "inputs": [],
      "name": "fungibleModule",
      "outputs": [
        {
          "internalType": "address",
          "name": "",
          "type": "address"
        }
      ],
      "stateMutability": "view",
      "type": "function"
    },
    {
      "inputs": [],
      "name": "gateway",
      "outputs": [
        {
          "internalType": "address",
          "name": "",
          "type": "address"
        }
      ],
      "stateMutability": "view",
      "type": "function"
    },
    {
      "inputs": [
        {
          "internalType": "uint256",
          "name": "id",
          "type": "uint256"
        },
        {
          "internalType": "address",
          "name": "contributor",
          "type": "address"
        }
      ],
      "name": "getContribution",
      "outputs": [
        {
          "internalType": "uint256",
          "name": "",
          "type": "uint256"
        }
      ],
      "stateMutability": "view",
      "type": "function"
    },
    {
      "inputs": [
        {
          "internalType": "uint256",
          "name": "id",
          "type": "uint256"
        }
      ],
      "name": "getContributors",
      "outputs": [
        {
          "internalType": "address[]",
          "name": "",
          "type": "address[]"
        }
      ],
      "stateMutability": "view",
      "type": "function"
    },
    {
      "inputs": [
        {
          "internalType": "uint256",
          "name": "",
          "type": "uint256"
        }
      ],
      "name": "invoices",
      "outputs": [
        {
          "internalType": "address",
          "name": "seller",
          "type": "address"
        },
        {
          "internalType": "address",
          "name": "token",
          "type": "address"
        },
        {
          "internalType": "uint256",
          "name": "totalAmount",
          "type": "uint256"
        },
        {
          "internalType": "uint256",
          "name": "amountPaid",
          "type": "uint256"
        },
        {
          "internalType": "uint256",
          "name": "expiration",
          "type": "uint256"
        },
        {
          "internalType": "bool",
          "name": "completed",
          "type": "bool"
        }
      ],
      "stateMutability": "view",
      "type": "function"
    },
    {
      "inputs": [],
      "name": "nextInvoiceId",
      "outputs": [
        {
          "internalType": "uint256",
          "name": "",
          "type": "uint256"
        }
      ],
      "stateMutability": "view",
      "type": "function"
    },
    {
      "inputs": [
        {
          "components": [
            {
              "internalType": "bytes",
              "name": "sender",
              "type": "bytes"
            },
            {
              "internalType": "address",
              "name": "senderEVM",
              "type": "address"
            },
            {
              "internalType": "uint256",
              "name": "chainID",
              "type": "uint256"
            }
          ],
          "internalType": "struct MessageContext",
          "name": "context",
          "type": "tuple"
        },
        {
          "internalType": "address",
          "name": "zrc20",
          "type": "address"
        },
        {
          "internalType": "uint256",
          "name": "amount",
          "type": "uint256"
        },
        {
          "internalType": "bytes",
          "name": "message",
          "type": "bytes"
        }
      ],
      "name": "onCall",
      "outputs": [],
      "stateMutability": "nonpayable",
      "type": "function"
    },
    {
      "inputs": [
        {
          "internalType": "uint256",
          "name": "id",
          "type": "uint256"
        }
      ],
      "name": "refundContributors",
      "outputs": [],
      "stateMutability": "nonpayable",
      "type": "function"
    },
    {
      "inputs": [
        {
          "internalType": "uint256",
          "name": "id",
          "type": "uint256"
        },
        {
          "internalType": "address",
          "name": "zrc20",
          "type": "address"
        },
        {
          "internalType": "uint256",
          "name": "amount",
          "type": "uint256"
        },
        {
          "internalType": "uint256",
          "name": "zetaValue",
          "type": "uint256"
        },
        {
          "components": [
            {
              "internalType": "uint256",
              "name": "gasLimit",
              "type": "uint256"
            },
            {
              "internalType": "bool",
              "name": "isArbitraryCall",
              "type": "bool"
            }
          ],
          "internalType": "struct CallOptions",
          "name": "callOptions",
          "type": "tuple"
        }
      ],
      "name": "sendCrossChainPayment",
      "outputs": [],
      "stateMutability": "payable",
      "type": "function"
    },
    {
      "stateMutability": "payable",
      "type": "receive"
    }
  ],
  "bytecode": "0x60c0604052600160025534801561001557600080fd5b5060405161212038038061212083398181016040528101906100379190610109565b8173ffffffffffffffffffffffffffffffffffffffff1660808173ffffffffffffffffffffffffffffffffffffffff16815250508073ffffffffffffffffffffffffffffffffffffffff1660a08173ffffffffffffffffffffffffffffffffffffffff16815250505050610149565b600080fd5b600073ffffffffffffffffffffffffffffffffffffffff82169050919050565b60006100d6826100ab565b9050919050565b6100e6816100cb565b81146100f157600080fd5b50565b600081519050610103816100dd565b92915050565b600080604083850312156101205761011f6100a6565b5b600061012e858286016100f4565b925050602061013f858286016100f4565b9150509250929050565b60805160a051611fa461017c60003960008181610481015281816106590152610c0d01526000610fd80152611fa46000f3fe6080604052600436106100ab5760003560e01c80634e6d1405116100645780634e6d14051461023b5780635bcfd6161461027d5780636ff2a953146102a6578063bf2d9caa146102d1578063e081dbf9146102fc578063f44ceee714610339576100e2565b806302b175ef14610114578063116191b6146101515780631f3c2d2d1461017c5780633c1ab00f146101985780633d891f59146101d55780634d0a391c14610212576100e2565b366100e2576040517fddb5de5e00000000000000000000000000000000000000000000000000000000815260040160405180910390fd5b6040517fddb5de5e00000000000000000000000000000000000000000000000000000000815260040160405180910390fd5b34801561012057600080fd5b5061013b600480360381019061013691906115e2565b610362565b6040516101489190611644565b60405180910390f35b34801561015d57600080fd5b5061016661047f565b604051610173919061166e565b60405180910390f35b610196600480360381019061019191906117a2565b6104a3565b005b3480156101a457600080fd5b506101bf60048036038101906101ba919061181d565b610794565b6040516101cc9190611908565b60405180910390f35b3480156101e157600080fd5b506101fc60048036038101906101f7919061192a565b610837565b6040516102099190611644565b60405180910390f35b34801561021e57600080fd5b506102396004803603810190610234919061196a565b61085c565b005b34801561024757600080fd5b50610262600480360381019061025d919061181d565b610b82565b604051610274969594939291906119b9565b60405180910390f35b34801561028957600080fd5b506102a4600480360381019061029f9190611aa3565b610c0b565b005b3480156102b257600080fd5b506102bb610fd0565b6040516102c89190611644565b60405180910390f35b3480156102dd57600080fd5b506102e6610fd6565b6040516102f3919061166e565b60405180910390f35b34801561030857600080fd5b50610323600480360381019061031e919061192a565b610ffa565b6040516103309190611644565b60405180910390f35b34801561034557600080fd5b50610360600480360381019061035b919061181d565b611055565b005b6000806002600081548092919061037890611b76565b91905055905060008060008381526020019081526020016000209050338160000160006101000a81548173ffffffffffffffffffffffffffffffffffffffff021916908373ffffffffffffffffffffffffffffffffffffffff160217905550858160010160006101000a81548173ffffffffffffffffffffffffffffffffffffffff021916908373ffffffffffffffffffffffffffffffffffffffff160217905550848160020181905550834261042f9190611bbe565b8160040181905550817f88721abb1d35cff296c5d462601d6bdfed57e9493f8c361d2bcc24241a2ebfec33888860405161046b93929190611bf2565b60405180910390a281925050509392505050565b7f000000000000000000000000000000000000000000000000000000000000000081565b60008060008781526020019081526020016000209050600073ffffffffffffffffffffffffffffffffffffffff168160000160009054906101000a900473ffffffffffffffffffffffffffffffffffffffff1673ffffffffffffffffffffffffffffffffffffffff1603610543576040517f715d922800000000000000000000000000000000000000000000000000000000815260040160405180910390fd5b8060050160009054906101000a900460ff161561058c576040517f24e0231e00000000000000000000000000000000000000000000000000000000815260040160405180910390fd5b8060010160009054906101000a900473ffffffffffffffffffffffffffffffffffffffff1673ffffffffffffffffffffffffffffffffffffffff166323b872dd3330876040518463ffffffff1660e01b81526004016105ed93929190611bf2565b6020604051808303816000875af115801561060c573d6000803e3d6000fd5b505050506040513d601f19601f820116820180604052508101906106309190611c3e565b506000866040516020016106449190611644565b604051602081830303815290604052905060007f0000000000000000000000000000000000000000000000000000000000000000905060006040518060a001604052803373ffffffffffffffffffffffffffffffffffffffff168152602001600115158152602001600073ffffffffffffffffffffffffffffffffffffffff1681526020018a6040516020016106da9190611644565b6040516020818303038152906040528152602001620186a081525090508173ffffffffffffffffffffffffffffffffffffffff166306cb898330604051602001610724919061166e565b6040516020818303038152906040528a8689866040518663ffffffff1660e01b8152600401610757959493929190611df7565b600060405180830381600087803b15801561077157600080fd5b505af1158015610785573d6000803e3d6000fd5b50505050505050505050505050565b606060008083815260200190815260200160002060060180548060200260200160405190810160405280929190818152602001828054801561082b57602002820191906000526020600020905b8160009054906101000a900473ffffffffffffffffffffffffffffffffffffffff1673ffffffffffffffffffffffffffffffffffffffff16815260200190600101908083116107e1575b50505050509050919050565b6001602052816000526040600020602052806000526040600020600091509150505481565b60008060008481526020019081526020016000209050600073ffffffffffffffffffffffffffffffffffffffff168160000160009054906101000a900473ffffffffffffffffffffffffffffffffffffffff1673ffffffffffffffffffffffffffffffffffffffff16036108fc576040517f715d922800000000000000000000000000000000000000000000000000000000815260040160405180910390fd5b8060050160009054906101000a900460ff1615610945576040517f24e0231e00000000000000000000000000000000000000000000000000000000815260040160405180910390fd5b60006001600085815260200190815260200160002060003373ffffffffffffffffffffffffffffffffffffffff1673ffffffffffffffffffffffffffffffffffffffff1681526020019081526020016000205403610a035780600601339080600181540180825580915050600190039060005260206000200160009091909190916101000a81548173ffffffffffffffffffffffffffffffffffffffff021916908373ffffffffffffffffffffffffffffffffffffffff1602179055505b816001600085815260200190815260200160002060003373ffffffffffffffffffffffffffffffffffffffff1673ffffffffffffffffffffffffffffffffffffffff1681526020019081526020016000206000828254610a639190611bbe565b9250508190555081816003016000828254610a7e9190611bbe565b925050819055508060010160009054906101000a900473ffffffffffffffffffffffffffffffffffffffff1673ffffffffffffffffffffffffffffffffffffffff166323b872dd3330856040518463ffffffff1660e01b8152600401610ae693929190611bf2565b6020604051808303816000875af1158015610b05573d6000803e3d6000fd5b505050506040513d601f19601f82011682018060405250810190610b299190611c3e565b50827f7b16648f61994538ced578581d43e82ea2ac3932c5307efadfc41d9cd7d2329e3384604051610b5c929190611e5f565b60405180910390a28060020154816003015410610b7d57610b7c83611396565b5b505050565b60006020528060005260406000206000915090508060000160009054906101000a900473ffffffffffffffffffffffffffffffffffffffff16908060010160009054906101000a900473ffffffffffffffffffffffffffffffffffffffff16908060020154908060030154908060040154908060050160009054906101000a900460ff16905086565b7f000000000000000000000000000000000000000000000000000000000000000073ffffffffffffffffffffffffffffffffffffffff163373ffffffffffffffffffffffffffffffffffffffff1614610c90576040517fec76af1300000000000000000000000000000000000000000000000000000000815260040160405180910390fd5b60008282810190610ca1919061181d565b905060008060008381526020019081526020016000209050600073ffffffffffffffffffffffffffffffffffffffff168160000160009054906101000a900473ffffffffffffffffffffffffffffffffffffffff1673ffffffffffffffffffffffffffffffffffffffff1603610d43576040517f715d922800000000000000000000000000000000000000000000000000000000815260040160405180910390fd5b8060050160009054906101000a900460ff1615610d8c576040517f24e0231e00000000000000000000000000000000000000000000000000000000815260040160405180910390fd5b8573ffffffffffffffffffffffffffffffffffffffff168160010160009054906101000a900473ffffffffffffffffffffffffffffffffffffffff1673ffffffffffffffffffffffffffffffffffffffff1614610e15576040517fc1ab6dc100000000000000000000000000000000000000000000000000000000815260040160405180910390fd5b6000610e31888060000190610e2a9190611e97565b60006114c5565b905060006001600085815260200190815260200160002060008373ffffffffffffffffffffffffffffffffffffffff1673ffffffffffffffffffffffffffffffffffffffff1681526020019081526020016000205403610ef15781600601819080600181540180825580915050600190039060005260206000200160009091909190916101000a81548173ffffffffffffffffffffffffffffffffffffffff021916908373ffffffffffffffffffffffffffffffffffffffff1602179055505b856001600085815260200190815260200160002060008373ffffffffffffffffffffffffffffffffffffffff1673ffffffffffffffffffffffffffffffffffffffff1681526020019081526020016000206000828254610f519190611bbe565b9250508190555085826003016000828254610f6c9190611bbe565b92505081905550827f7b16648f61994538ced578581d43e82ea2ac3932c5307efadfc41d9cd7d2329e8288604051610fa5929190611e5f565b60405180910390a28160020154826003015410610fc657610fc583611396565b5b5050505050505050565b60025481565b7f000000000000000000000000000000000000000000000000000000000000000081565b60006001600084815260200190815260200160002060008373ffffffffffffffffffffffffffffffffffffffff1673ffffffffffffffffffffffffffffffffffffffff16815260200190815260200160002054905092915050565b60008060008381526020019081526020016000209050600073ffffffffffffffffffffffffffffffffffffffff168160000160009054906101000a900473ffffffffffffffffffffffffffffffffffffffff1673ffffffffffffffffffffffffffffffffffffffff16036110f5576040517f715d922800000000000000000000000000000000000000000000000000000000815260040160405180910390fd5b8060050160009054906101000a900460ff161561113e576040517f24e0231e00000000000000000000000000000000000000000000000000000000815260040160405180910390fd5b806004015442101561117c576040517f30f53a1f00000000000000000000000000000000000000000000000000000000815260040160405180910390fd5b60005b81600601805490508110156113745760008260060182815481106111a6576111a5611efa565b5b9060005260206000200160009054906101000a900473ffffffffffffffffffffffffffffffffffffffff16905060006001600086815260200190815260200160002060008373ffffffffffffffffffffffffffffffffffffffff1673ffffffffffffffffffffffffffffffffffffffff16815260200190815260200160002054905060008111156113655760006001600087815260200190815260200160002060008473ffffffffffffffffffffffffffffffffffffffff1673ffffffffffffffffffffffffffffffffffffffff168152602001908152602001600020819055508360010160009054906101000a900473ffffffffffffffffffffffffffffffffffffffff1673ffffffffffffffffffffffffffffffffffffffff1663a9059cbb83836040518363ffffffff1660e01b81526004016112e6929190611e5f565b6020604051808303816000875af1158015611305573d6000803e3d6000fd5b505050506040513d601f19601f820116820180604052508101906113299190611c3e565b50847f7a482fdeb6bc9a1376f597068a214a7a39472bb2eff1b8cad21ba04f49ddca1b838360405161135c929190611e5f565b60405180910390a25b5050808060010191505061117f565b5060018160050160006101000a81548160ff0219169083151502179055505050565b6000806000838152602001908152602001600020905060018160050160006101000a81548160ff0219169083151502179055508060010160009054906101000a900473ffffffffffffffffffffffffffffffffffffffff1673ffffffffffffffffffffffffffffffffffffffff1663a9059cbb8260000160009054906101000a900473ffffffffffffffffffffffffffffffffffffffff1683600301546040518363ffffffff1660e01b8152600401611450929190611e5f565b6020604051808303816000875af115801561146f573d6000803e3d6000fd5b505050506040513d601f19601f820116820180604052508101906114939190611c3e565b50817f65c9709b10da0fb5228a4a03ad6972195d2c2c442165988a137dc0a2197b803360405160405180910390a25050565b600080848484906014866114d99190611bbe565b926114e693929190611f33565b8080601f016020809104026020016040519081016040528093929190818152602001838380828437600081840152601f19601f82011690508083019250505050505050905060148101519150509392505050565b6000604051905090565b600080fd5b600080fd5b600073ffffffffffffffffffffffffffffffffffffffff82169050919050565b60006115798261154e565b9050919050565b6115898161156e565b811461159457600080fd5b50565b6000813590506115a681611580565b92915050565b6000819050919050565b6115bf816115ac565b81146115ca57600080fd5b50565b6000813590506115dc816115b6565b92915050565b6000806000606084860312156115fb576115fa611544565b5b600061160986828701611597565b935050602061161a868287016115cd565b925050604061162b868287016115cd565b9150509250925092565b61163e816115ac565b82525050565b60006020820190506116596000830184611635565b92915050565b6116688161156e565b82525050565b6000602082019050611683600083018461165f565b92915050565b600080fd5b6000601f19601f8301169050919050565b7f4e487b7100000000000000000000000000000000000000000000000000000000600052604160045260246000fd5b6116d78261168e565b810181811067ffffffffffffffff821117156116f6576116f561169f565b5b80604052505050565b600061170961153a565b905061171582826116ce565b919050565b60008115159050919050565b61172f8161171a565b811461173a57600080fd5b50565b60008135905061174c81611726565b92915050565b60006040828403121561176857611767611689565b5b61177260406116ff565b90506000611782848285016115cd565b60008301525060206117968482850161173d565b60208301525092915050565b600080600080600060c086880312156117be576117bd611544565b5b60006117cc888289016115cd565b95505060206117dd88828901611597565b94505060406117ee888289016115cd565b93505060606117ff888289016115cd565b925050608061181088828901611752565b9150509295509295909350565b60006020828403121561183357611832611544565b5b6000611841848285016115cd565b91505092915050565b600081519050919050565b600082825260208201905092915050565b6000819050602082019050919050565b61187f8161156e565b82525050565b60006118918383611876565b60208301905092915050565b6000602082019050919050565b60006118b58261184a565b6118bf8185611855565b93506118ca83611866565b8060005b838110156118fb5781516118e28882611885565b97506118ed8361189d565b9250506001810190506118ce565b5085935050505092915050565b6000602082019050818103600083015261192281846118aa565b905092915050565b6000806040838503121561194157611940611544565b5b600061194f858286016115cd565b925050602061196085828601611597565b9150509250929050565b6000806040838503121561198157611980611544565b5b600061198f858286016115cd565b92505060206119a0858286016115cd565b9150509250929050565b6119b38161171a565b82525050565b600060c0820190506119ce600083018961165f565b6119db602083018861165f565b6119e86040830187611635565b6119f56060830186611635565b611a026080830185611635565b611a0f60a08301846119aa565b979650505050505050565b600080fd5b600060608284031215611a3557611a34611a1a565b5b81905092915050565b600080fd5b600080fd5b600080fd5b60008083601f840112611a6357611a62611a3e565b5b8235905067ffffffffffffffff811115611a8057611a7f611a43565b5b602083019150836001820283011115611a9c57611a9b611a48565b5b9250929050565b600080600080600060808688031215611abf57611abe611544565b5b600086013567ffffffffffffffff811115611add57611adc611549565b5b611ae988828901611a1f565b9550506020611afa88828901611597565b9450506040611b0b888289016115cd565b935050606086013567ffffffffffffffff811115611b2c57611b2b611549565b5b611b3888828901611a4d565b92509250509295509295909350565b7f4e487b7100000000000000000000000000000000000000000000000000000000600052601160045260246000fd5b6000611b81826115ac565b91507fffffffffffffffffffffffffffffffffffffffffffffffffffffffffffffffff8203611bb357611bb2611b47565b5b600182019050919050565b6000611bc9826115ac565b9150611bd4836115ac565b9250828201905080821115611bec57611beb611b47565b5b92915050565b6000606082019050611c07600083018661165f565b611c14602083018561165f565b611c216040830184611635565b949350505050565b600081519050611c3881611726565b92915050565b600060208284031215611c5457611c53611544565b5b6000611c6284828501611c29565b91505092915050565b600081519050919050565b600082825260208201905092915050565b60005b83811015611ca5578082015181840152602081019050611c8a565b60008484015250505050565b6000611cbc82611c6b565b611cc68185611c76565b9350611cd6818560208601611c87565b611cdf8161168e565b840191505092915050565b611cf3816115ac565b82525050565b611d028161171a565b82525050565b604082016000820151611d1e6000850182611cea565b506020820151611d316020850182611cf9565b50505050565b600082825260208201905092915050565b6000611d5382611c6b565b611d5d8185611d37565b9350611d6d818560208601611c87565b611d768161168e565b840191505092915050565b600060a083016000830151611d996000860182611876565b506020830151611dac6020860182611cf9565b506040830151611dbf6040860182611876565b5060608301518482036060860152611dd78282611d48565b9150506080830151611dec6080860182611cea565b508091505092915050565b600060c0820190508181036000830152611e118188611cb1565b9050611e20602083018761165f565b8181036040830152611e328186611cb1565b9050611e416060830185611d08565b81810360a0830152611e538184611d81565b90509695505050505050565b6000604082019050611e74600083018561165f565b611e816020830184611635565b9392505050565b600080fd5b600080fd5b600080fd5b60008083356001602003843603038112611eb457611eb3611e88565b5b80840192508235915067ffffffffffffffff821115611ed657611ed5611e8d565b5b602083019250600182023603831315611ef257611ef1611e92565b5b509250929050565b7f4e487b7100000000000000000000000000000000000000000000000000000000600052603260045260246000fd5b600080fd5b600080fd5b60008085851115611f4757611f46611f29565b5b83861115611f5857611f57611f2e565b5b600185028301915084860390509450949250505056fea2646970667358221220a6139f036ea89f93897f6c9812a136f455772783a005676a4babc363a16ec8bc64736f6c634300081a0033",
  "linkReferences": {},
  "deployedLinkReferences": {}
}